{
  "contractName": "ExampleExternalContract",
  "abi": [
    {
      "inputs": [],
      "name": "completed",
      "outputs": [
        {
          "internalType": "bool",
          "name": "",
          "type": "bool"
        }
      ],
      "stateMutability": "view",
      "type": "function"
    },
    {
      "inputs": [],
      "name": "complete",
      "outputs": [],
      "stateMutability": "payable",
      "type": "function"
    }
  ],
  "bytecode": "0x608060405234801561001057600080fd5b5060ee8061001f6000396000f3fe60806040526004361060265760003560e01c8063522e117714602b5780639d9a7fe9146033575b600080fd5b60316059565b005b348015603e57600080fd5b5060456075565b604051605091906093565b60405180910390f35b60016000806101000a81548160ff021916908315150217905550565b60008054906101000a900460ff1681565b608d8160ac565b82525050565b600060208201905060a660008301846086565b92915050565b6000811515905091905056fea26469706673582212207f49614baf96667ca70139222566ad92f5545593d6328fd502f56ffb138836b264736f6c63430008000033",
  "immutableReferences": {},
  "source": "pragma solidity ^0.8.0;\r\n\r\ncontract ExampleExternalContract {\r\n\r\n  bool public completed;\r\n\r\n  function complete() public payable {\r\n    completed = true;\r\n  }\r\n\r\n}",
  "sourcePath": "C:\\Users\\armin\\Documents\\GitHub\\decentralized-staking2\\contracts\\ExampleExternalContract.sol",
  "compiler": {
    "name": "solc",
    "version": "0.8.0+commit.c7dfd78e.Emscripten.clang"
  },
  "schemaVersion": "3.4.3",
  "updatedAt": "2021-12-19T22:02:09.104Z",
  "devdoc": {
    "kind": "dev",
    "methods": {},
    "version": 1
  },
  "userdoc": {
    "kind": "user",
    "methods": {},
    "version": 1
  }
}