{
  "contractName": "Staking",
  "abi": [
    {
      "inputs": [
        {
          "internalType": "address",
          "name": "exampleExternalContractAddress",
          "type": "address"
        }
      ],
      "stateMutability": "nonpayable",
      "type": "constructor"
    },
    {
      "anonymous": false,
      "inputs": [],
      "name": "Executed",
      "type": "event"
    },
    {
      "anonymous": false,
      "inputs": [
        {
          "indexed": true,
          "internalType": "address",
          "name": "staker",
          "type": "address"
        },
        {
          "indexed": false,
          "internalType": "uint256",
          "name": "amount",
          "type": "uint256"
        }
      ],
      "name": "Staked",
      "type": "event"
    },
    {
      "inputs": [
        {
          "internalType": "address",
          "name": "",
          "type": "address"
        }
      ],
      "name": "balances",
      "outputs": [
        {
          "internalType": "uint256",
          "name": "",
          "type": "uint256"
        }
      ],
      "stateMutability": "view",
      "type": "function",
      "constant": true
    },
    {
      "inputs": [],
      "name": "deadline",
      "outputs": [
        {
          "internalType": "uint256",
          "name": "",
          "type": "uint256"
        }
      ],
      "stateMutability": "view",
      "type": "function",
      "constant": true
    },
    {
      "inputs": [],
      "name": "exampleExternalContract",
      "outputs": [
        {
          "internalType": "contract ExampleExternalContract",
          "name": "",
          "type": "address"
        }
      ],
      "stateMutability": "view",
      "type": "function",
      "constant": true
    },
    {
      "inputs": [],
      "name": "threshold",
      "outputs": [
        {
          "internalType": "uint256",
          "name": "",
          "type": "uint256"
        }
      ],
      "stateMutability": "view",
      "type": "function",
      "constant": true
    },
    {
      "stateMutability": "payable",
      "type": "receive",
      "payable": true
    },
    {
      "inputs": [],
      "name": "stake",
      "outputs": [],
      "stateMutability": "payable",
      "type": "function",
      "payable": true
    },
    {
      "inputs": [],
      "name": "execute",
      "outputs": [],
      "stateMutability": "nonpayable",
      "type": "function"
    },
    {
      "inputs": [
        {
          "internalType": "address payable",
          "name": "_to",
          "type": "address"
        }
      ],
      "name": "withdraw",
      "outputs": [],
      "stateMutability": "nonpayable",
      "type": "function"
    },
    {
      "inputs": [],
      "name": "timeLeft",
      "outputs": [
        {
          "internalType": "uint256",
          "name": "",
          "type": "uint256"
        }
      ],
      "stateMutability": "view",
      "type": "function",
      "constant": true
    }
  ],
  "bytecode": "0x6080604052601e4261001191906100e1565b6002556000600360006101000a81548160ff02191690831515021790555034801561003b57600080fd5b50604051610ae1380380610ae1833981810160405281019061005d91906100b8565b806000806101000a81548173ffffffffffffffffffffffffffffffffffffffff021916908373ffffffffffffffffffffffffffffffffffffffff160217905550506101b9565b6000815190506100b2816101a2565b92915050565b6000602082840312156100ca57600080fd5b60006100d8848285016100a3565b91505092915050565b60006100ec82610169565b91506100f783610169565b9250827fffffffffffffffffffffffffffffffffffffffffffffffffffffffffffffffff0382111561012c5761012b610173565b5b828201905092915050565b600061014282610149565b9050919050565b600073ffffffffffffffffffffffffffffffffffffffff82169050919050565b6000819050919050565b7f4e487b7100000000000000000000000000000000000000000000000000000000600052601160045260246000fd5b6101ab81610137565b81146101b657600080fd5b50565b610919806101c86000396000f3fe60806040526004361061007f5760003560e01c806342cde4e81161004e57806342cde4e81461013057806351cff8d91461015b57806361461954146101845780639f75f2271461019b5761008e565b80631300a6d11461009357806327e235e3146100be57806329dcb0cf146100fb5780633a4b66f1146101265761008e565b3661008e5761008c6101c6565b005b600080fd5b34801561009f57600080fd5b506100a861026c565b6040516100b5919061075e565b60405180910390f35b3480156100ca57600080fd5b506100e560048036038101906100e091906105b3565b61028b565b6040516100f2919061075e565b60405180910390f35b34801561010757600080fd5b506101106102a3565b60405161011d919061075e565b60405180910390f35b61012e6101c6565b005b34801561013c57600080fd5b506101456102a9565b604051610152919061075e565b60405180910390f35b34801561016757600080fd5b50610182600480360381019061017d91906105dc565b6102b5565b005b34801561019057600080fd5b50610199610449565b005b3480156101a757600080fd5b506101b061054b565b6040516101bd91906106e3565b60405180910390f35b34600160003373ffffffffffffffffffffffffffffffffffffffff1673ffffffffffffffffffffffffffffffffffffffff1681526020019081526020016000206000828254610215919061078a565b925050819055503373ffffffffffffffffffffffffffffffffffffffff167f9e71bc8eea02a63969f509818f2dafb9254532904319f9dbda79b67bd34a5f3d34604051610262919061075e565b60405180910390a2565b600061028660006002544261028191906107e0565b61056f565b905090565b60016020528060005260406000206000915090505481565b60025481565b670de0b6b3a764000081565b60011515600360009054906101000a900460ff1615151461030b576040517f08c379a00000000000000000000000000000000000000000000000000000000081526004016103029061073e565b60405180910390fd5b6000600160003373ffffffffffffffffffffffffffffffffffffffff1673ffffffffffffffffffffffffffffffffffffffff168152602001908152602001600020541161038d576040517f08c379a00000000000000000000000000000000000000000000000000000000081526004016103849061071e565b60405180910390fd5b60008173ffffffffffffffffffffffffffffffffffffffff166108fc600160003373ffffffffffffffffffffffffffffffffffffffff1673ffffffffffffffffffffffffffffffffffffffff168152602001908152602001600020549081150290604051600060405180830381858888f19350505050905080610445576040517f08c379a000000000000000000000000000000000000000000000000000000000815260040161043c906106fe565b60405180910390fd5b5050565b600254421161045757600080fd5b670de0b6b3a7640000471161046b57600080fd5b670de0b6b3a764000047111561052d5760008054906101000a900473ffffffffffffffffffffffffffffffffffffffff1673ffffffffffffffffffffffffffffffffffffffff1663522e1177476040518263ffffffff1660e01b81526004016000604051808303818588803b1580156104e357600080fd5b505af11580156104f7573d6000803e3d6000fd5b50505050507f68f46c45a243a0e9065a97649faf9a5afe1692f2679e650c2f853b9cd734cc0e60405160405180910390a1610549565b6001600360006101000a81548160ff0219169083151502179055505b565b60008054906101000a900473ffffffffffffffffffffffffffffffffffffffff1681565b60008183101561057f5781610581565b825b905092915050565b600081359050610598816108b5565b92915050565b6000813590506105ad816108cc565b92915050565b6000602082840312156105c557600080fd5b60006105d384828501610589565b91505092915050565b6000602082840312156105ee57600080fd5b60006105fc8482850161059e565b91505092915050565b61060e81610862565b82525050565b6000610621601483610779565b91507f4661696c656420746f2073656e642065746865720000000000000000000000006000830152602082019050919050565b6000610661601683610779565b91507f53656e64657227732062616c616e636520697320302e000000000000000000006000830152602082019050919050565b60006106a1601783610779565b91507f5468726573686f6c6420686173206265656e206d65742e0000000000000000006000830152602082019050919050565b6106dd81610858565b82525050565b60006020820190506106f86000830184610605565b92915050565b6000602082019050818103600083015261071781610614565b9050919050565b6000602082019050818103600083015261073781610654565b9050919050565b6000602082019050818103600083015261075781610694565b9050919050565b600060208201905061077360008301846106d4565b92915050565b600082825260208201905092915050565b600061079582610858565b91506107a083610858565b9250827fffffffffffffffffffffffffffffffffffffffffffffffffffffffffffffffff038211156107d5576107d4610886565b5b828201905092915050565b60006107eb82610858565b91506107f683610858565b92508282101561080957610808610886565b5b828203905092915050565b600061081f82610838565b9050919050565b600061083182610838565b9050919050565b600073ffffffffffffffffffffffffffffffffffffffff82169050919050565b6000819050919050565b600061086d82610874565b9050919050565b600061087f82610838565b9050919050565b7f4e487b7100000000000000000000000000000000000000000000000000000000600052601160045260246000fd5b6108be81610814565b81146108c957600080fd5b50565b6108d581610826565b81146108e057600080fd5b5056fea26469706673582212202e02037c248e1cda085f07d4ae29d05e7e7723ba59eaf9dc4ea68673216514c564736f6c63430008000033",
  "immutableReferences": {},
  "source": "//SPDX-License-Identifier: MIT\r\npragma solidity ^0.8.0;\r\n\r\nimport \"./ExampleExternalContract.sol\";\r\nimport \"@openzeppelin/contracts/utils/math/Math.sol\";\r\n\r\n\r\n\r\ncontract Staking {\r\n\r\n    ExampleExternalContract public exampleExternalContract;\r\n\r\n    constructor(address exampleExternalContractAddress) {\r\n        exampleExternalContract = ExampleExternalContract(exampleExternalContractAddress);\r\n    }\r\n\r\n    mapping ( address => uint256 ) public balances;\r\n    uint256 public constant threshold = 1 ether;\r\n    uint256 public deadline = block.timestamp + 30 seconds;\r\n    bool openForWithdraw = false;\r\n\r\n    event Staked(address indexed staker, uint256 amount);\r\n    event Executed();\r\n\r\n    // Add function to sender balance\r\n    function stake() payable public {\r\n        balances[msg.sender] += msg.value;\r\n\r\n        emit Staked(msg.sender, msg.value);\r\n    }\r\n\r\n    /*\r\n    Call external contract's complete function if both criteria are fulfilled:\r\n    1. deadline has passed; 2. contract balance meets defined threshold\r\n    */\r\n    function execute() public {\r\n        require(block.timestamp > deadline);\r\n        require(address(this).balance > threshold);\r\n\r\n        if (address(this).balance > threshold) {\r\n            exampleExternalContract.complete{value: address(this).balance}();\r\n            emit Executed();\r\n        }\r\n        else {\r\n            openForWithdraw = true;\r\n        }\r\n    }\r\n\r\n    // allows to withdraw one's own funds of threshold has yet to be met\r\n    function withdraw(address payable _to) external {\r\n        require(openForWithdraw == true, \"Threshold has been met.\");\r\n        require(balances[msg.sender] > 0, \"Sender's balance is 0.\");\r\n\r\n        bool sent = _to.send(balances[msg.sender]);\r\n        require(sent, \"Failed to send ether\");\r\n    }\r\n\r\n    // Calculates the remaining time until deadline passes\r\n    function timeLeft() public view returns(uint256 ) {\r\n        return Math.max(0, block.timestamp - deadline);\r\n    }\r\n\r\n    // Handles all calls with msg.value != 0 where stake() is not invoked directly\r\n    receive() payable external {\r\n        stake();\r\n    }\r\n}\r\n",
  "sourcePath": "C:\\Users\\armin\\Documents\\GitHub\\decentralized-staking2\\contracts\\Staking.sol",
  "compiler": {
    "name": "solc",
    "version": "0.8.0+commit.c7dfd78e.Emscripten.clang"
  },
  "schemaVersion": "3.4.3",
  "updatedAt": "2021-12-25T12:59:20.469Z",
  "networkType": "ethereum",
  "devdoc": {
    "kind": "dev",
    "methods": {},
    "version": 1
  },
  "userdoc": {
    "kind": "user",
    "methods": {},
    "version": 1
  }
}